:100000000C942A000C9434000C9434000C943400AA
:100010000C9434000C9434000C9434000C94340090
:100020000C9434000C9434000C9434000C94340080
:100030000C9434000C9434000C9434000C94340070
:100040000C9434000C9434000C9434000C94340060
:100050000C94340011241FBECFE5D4E0DEBFCDBF29
:100060000E9436000C944B000C9400008FEF8ABB6A
:100070004FEF50E028E030E04BBB440F551F80EAC3
:1000800096E8A1E0B0E00197A109B109E1F721509C
:0A009000310981F3F1CFF894FFCF9E
:00000001FF
