S00C000054365F412E73726563EE
S11300000C942A000C9434000C9434000C943400A6
S11300100C9434000C9434000C9434000C9434008C
S11300200C9434000C9434000C9434000C9434007C
S11300300C9434000C9434000C9434000C9434006C
S11300400C9434000C9434000C9434000C9434005C
S11300500C94340011241FBECFE5D4E0DEBFCDBF25
S11300600E9436000C9458000C9400008FEF8ABB59
S1130070EFE376E06BE55FE446E63DE62DE797E0E7
S11300808FE7FFE6B099EBBBB1997BBBB2996BBB31
S1130090B3995BBBB4994BBB98993BBB99992BBB68
S11300A09A999BBB9B998BBB9C9BECCFFBBBEACFE8
S10700B0F894FFCFEE
S9030000FC
