:100000000C942A000C9434000C9434000C943400AA
:100010000C9434000C9434000C9434000C94340090
:100020000C9434000C9434000C9434000C94340080
:100030000C9434000C9434000C9434000C94340070
:100040000C9434000C9434000C9434000C94340060
:100050000C94340011241FBECFE5D4E0DEBFCDBF29
:100060000E9436000C945B000C9400008FEF84BB60
:1000700020E030E06FE070E049E050E042175307C5
:100080005CF46217730744F06217730771F4605FE2
:100090007F4F405F5F4F09C025BB80EA96E8A1E033
:1000A000B0E00197A109B109E1F72F5F3F4F29396E
:0A00B0003105F1F2E3CFF894FFCF21
:00000001FF
