:100000000C942A000C9434000C9434000C943400AA
:100010000C9434000C9434000C9434000C94340090
:100020000C9434000C9434000C9434000C94340080
:100030000C9434000C9434000C9434000C94340070
:100040000C9434000C9434000C9434000C94340060
:100050000C94340011241FBECFE5D4E0DEBFCDBF29
:100060000E9436000C9458000C9400001ABA8FEFCE
:1000700084BB80E040E050E091E0C89B05C0811166
:1000800013C002C04C5E5F4FC899892F20E030E05A
:100090002417350714F415BA01C095BB2F5F3F4FE5
:1000A000283C310551F3F4CF483C51055CF3ECCFCB
:0400B000F894FFCFF2
:00000001FF
