:100000000C942A000C9434000C9434000C943400AA
:100010000C9434000C9434000C9434000C94340090
:100020000C9434000C9434000C9434000C94340080
:100030000C9434000C9434000C9434000C94340070
:100040000C9434000C9434000C9434000C94340060
:100050000C94340011241FBECFE5D4E0DEBFCDBF29
:100060000E944A000C9484000C940000019721E047
:1000700030E0A90102C0440F551F8A95E2F745BB45
:100080006150710902C0220F331F6A95E2F7209573
:1000900022BB08958FEF84BB81BBCC24C394D12CA9
:1000A000EE24E394F12C06E010E0C2E0D0E08824D6
:1000B0008A9499249A94AA24A394B12CC830D10587
:1000C00031F0C130D10529F4EA2CFB2C02C0E82C18
:1000D000F92C0830110531F00130110529F4CA2C32
:1000E000DB2C02C0C82CD92CCE0DDF1D0C0D1D1D24
:1000F000B801CE010E94360080E090E00196803188
:0C01000027E29207D9F2FACFF894FFCF63
:00000001FF
