S0120000496E7465727570745F312E7372656327
S11300000C942A000C9440000C9434000C9434009A
S11300100C9434000C9434000C9434000C9434008C
S11300200C9434000C9434000C9434000C9434007C
S11300300C9434000C9434000C9434000C9434006C
S11300400C9434000C9434000C9434000C9434005C
S11300500C94340011241FBECFE5D4E0DEBFCDBF25
S11300600E9436000C944F000C9400008FEF8ABB62
S11300701BBA80E48BBF93E095BF8ABF7894FFCF0F
S11300801F920F920FB60F9211248F938BB380950A
S11300908BBB8F910F900FBE0F901F901895F89403
S10500A0FFCF8C
S9030000FC
