:100000000C942A000C9434000C9434000C943400AA
:100010000C9434000C9434000C9434000C94340090
:100020000C9434000C9434000C9434000C94340080
:100030000C9434000C9434000C9434000C94340070
:100040000C9434000C9434000C9434000C94340060
:100050000C94340011241FBECFE5D4E0DEBFCDBF29
:100060000E94AD000C948E010C9400009C01992319
:1000700024F422273327281B390B29303105BCF4FF
:1000800018BA2150310981E090E002C0880F991F11
:100090002A95E2F78BBB6150710981E090E002C0C4
:1000A000880F991F6A95E2F7809585BB08951BBA62
:1000B0002950310981E090E002C0880F991F2A95EC
:1000C000E2F788BBE8CF9C012D5F3F4F8217930773
:1000D0009CF4F90120E030E061E070E0AB01082E13
:1000E00002C0440F551F0A94E2F7240F351F0196F2
:1000F0008E179F0799F702C020E030E0209525BBBE
:1001000081E08BBB80E888BB08958130910511F0B8
:100110004097A1F464177507A1F0CA01019668170A
:10012000790791F001966817790789F04D5F5F4F65
:100130006417750779F08FEF9FEF089580E090E0E6
:10014000089581E090E0089581E090E0089581E0D5
:1001500090E0089581E090E008952F923F924F92B1
:100160005F926F927F928F929F92AF92BF92CF9247
:10017000DF92EF92FF920F931F93CF93DF938FEF56
:1001800084BB8ABB87BB80EF81BB612C712C412C67
:10019000512C22242394312C09C023E0421651040F
:1001A0002CF083E0681671040CF0A3C012BA18BAE0
:1001B0001BBA6894AA24A1F8B12C6894CC24C1F885
:1001C000D12CEE24E394F12C88248394912C06E026
:1001D00010E0C4E0D0E0C031D10531F0C130D1052C
:1001E00039F4822C932C04C088248A9499249A94FC
:1001F0000830110531F00130110539F4E22CF32CEF
:1002000004C0EE24EA94FF24FA94C80DD91D0E0D03
:100210001F1DB801CE010E94360080E090E00196DB
:10022000883B2BE09207D9F7C930D10534F5809B84
:1002300005C085E0C816D1040CF44BC0819B04C0F6
:100240001C141D040CF449C0C6010E946300A601E1
:10025000B801CE010E948500019699F58FEF681ACA
:10026000780A82B3805F82BB22E06216710409F0D3
:1002700094CF85B3805E85BB99CF829B04C085E017
:10028000A816B10474F1839B03C01A141B046CF10B
:10029000C5010E946300A501B801CE010E9485003E
:1002A000019679F48FEF481A580A82B3805C82BBBA
:1002B00022E04216510409F070CF85B3805885BB07
:1002C00075CF80E090E00196883B2BE09207D9F74C
:1002D00082CF8FEFC81AD80AB1CF21E0C21AD10855
:1002E000B3CF8FEFA81AB80ACECF21E0A21AB10877
:1002F000CFCF80E090E0DF91CF911F910F91FF90E1
:10030000EF90DF90CF90BF90AF909F908F907F90B5
:100310006F905F904F903F902F900895F894FFCF8B
:00000001FF
