:100000000C942A000C943F000C943F000C943F0089
:100010000C943F000C943F000C943F000C943F0064
:100020000C943F000C943F000C943F000C943F0054
:100030000C943F000C943F000C943F000C943F0044
:100040000C943F000C943F000C943F000C943F0034
:100050000C943F0011241FBECFE5D4E0DEBFCDBF1E
:1000600010E0A0E6B0E0E4E0F1E002C005900D92FF
:10007000A437B107D9F70E9441000C9480000C947A
:100080000000CF93DF93CDB7DEB764970FB6F89437
:10009000DEBF0FBECDBF84E1E0E6F0E0DE011196E9
:1000A00001900D928A95E1F78FEF84BB80E051E0DB
:1000B00040E001C0842FC8991FC0C99902C08111B6
:1000C000FACF2A30310514F020E030E0F901EE0FCC
:1000D000FF1F81E090E08C0F9D1FE80FF91F8081CA
:1000E00085BB2F5F3F4F80EA96E8A1E0B0E0019723
:1000F000A109B109E1F7DECFC999E3CF852FDBCFA5
:04010000F894FFCFA1
:100104004000790024003000190012000200780039
:0401140000001000D7
:00000001FF
