S00A000054342E7372656392
S11300000C942A000C9434000C9434000C943400A6
S11300100C9434000C9434000C9434000C9434008C
S11300200C9434000C9434000C9434000C9434007C
S11300300C9434000C9434000C9434000C9434006C
S11300400C9434000C9434000C9434000C9434005C
S11300500C94340011241FBECFE5D4E0DEBFCDBF25
S11300600E9436000C9442000C9400008FEF84BB75
S113007081BB88E085BB87EF82BB84E0C89BFECF51
S10B008085BBFCCFF894FFCF0F
S9030000FC
