:060000000C942A000C9490
:1000060000000C9400000C9400000C9400000C946A
:1000160000000C9400000C9400000C9400000C945A
:1000260000000C9400000C9400000C9400000C944A
:1000360000000C9400000C9400000C9400000C943A
:1000460000000C9400000C9400000C940000F8943E
:10005600EE27ECBBF1E0FBBFEBBFE5BF8DE0A2E016
:10006600BB27ED938A95E9F780E094E0A0E6ED934F
:100076000197E9F7EFE5EDBFE4E0EEBFC0E6D1E0BA
:100086000C944500EFEFE4BBE9B3E470E13010F007
:10009600EFE3E5BBCA9902C0E0E0E5BBF5CFFFCFD1
:00000001FF
