S00D00004C45445F332E73726563B0
S11300000C942A000C9434000C9434000C943400A6
S11300100C9434000C9434000C9434000C9434008C
S11300200C9434000C9434000C9434000C9434007C
S11300300C9434000C9434000C9434000C9434006C
S11300400C9434000C9434000C9434000C9434005C
S11300500C94340011241FBECFE5D4E0DEBFCDBF25
S11300600E9436000C9466000C9400007FE161E06D
S113007052E044E038E020E17ABB6BBB80E090E0E2
S113008001968031E7E29E07D9F75BBB80E090E000
S113009001968031E7E29E07D9F74BBB80E090E000
S11300A001968031E7E29E07D9F73BBB80E090E000
S11300B001968031E7E29E07D9F72BBB80E090E000
S11300C001968031E7E29E07B9F2FACFF894FFCFA8
S9030000FC
