:100000000C942A000C9434000C9434000C943400AA
:100010000C9434000C9434000C9434000C94340090
:100020000C9434000C9434000C9434000C94340080
:100030000C9434000C9434000C9434000C94340070
:100040000C9434000C9434000C9434000C94340060
:100050000C94340011241FBECFE5D4E0DEBFCDBF29
:100060000E9447000C9481000C94000021E030E0D5
:10007000A90102C0440F551F8A95E2F745BB02C093
:10008000220F331F6A95E2F7209522BB08958FEF68
:1000900084BB81BB1ABA60E070E080E090E00E940F
:1000A000360000E010E0C0E0D0E080E090E0019693
:1000B00080322EE49207D9F7C8992196C9992197E1
:1000C000CA9B02C00F5F1F4FCB9B02C0015011099A
:1000D000C930D1052CF4DD232CF4C8E0D0E002C0F7
:1000E000C0E0D0E0093011052CF411232CF408E015
:1000F00010E002C000E010E0B801CE010E9436001E
:06010000D4CFF894FFCFFC
:00000001FF
