:100000000C942A000C943F000C943F000C943F0089
:100010000C943F000C943F000C943F000C943F0064
:100020000C943F000C943F000C943F000C943F0054
:100030000C943F000C943F000C943F000C943F0044
:100040000C943F000C943F000C943F000C943F0034
:100050000C943F0011241FBECFE5D4E0DEBFCDBF1E
:1000600010E0A0E6B0E0E8EFF0E002C005900D92ED
:10007000A437B107D9F70E9441000C947A000C9480
:100080000000CF93DF93CDB7DEB764970FB6F89437
:10009000DEBF0FBECDBF8FEF84BB1ABA84E1E0E6AE
:1000A000F0E0DE01119601900D928A95E1F780E073
:1000B00090E0C89B1AC02FE936E841E0215030405B
:1000C0004040E1F700C000008A30910511F480E063
:1000D00090E0FC01EE0FFF1F21E030E02C0F3D1FF0
:1000E000E20FF31F208125BB0196C899E2CF2B8137
:0800F00025BBDFCFF894FFCF20
:1000F8003F0006005B004F0066006D007D000700B2
:040108007F006F0005
:00000001FF
