:100000000C942A000C9434000C9434000C943400AA
:100010000C9434000C9434000C9434000C94340090
:100020000C9434000C9434000C9434000C94340080
:100030000C9434000C9434000C9434000C94340070
:100040000C9434000C9434000C9434000C94340060
:100050000C94340011241FBECFE5D4E0DEBFCDBF29
:100060000E9436000C9477000C9400008FEF84BB44
:1000700081BB81E085BB87EF82BB30E020E051E0AF
:1000800040E001C0352F80E090E0019680326EE4C0
:100090009607D9F7211104C085B3880F85BB05C029
:1000A00085B390E09595879585BB311109C082B3E2
:1000B00090E09595879582BB82B3805882BB06C03D
:1000C00082B3880F82BB82B38F5F82BB85B38038D7
:1000D00029F085B3813019F4242F01C0252F82B374
:1000E0008E3F81F282B38F3771F6342FCCCFF894E4
:0200F000FFCF40
:00000001FF
